{
  "contractName": "Lottery",
  "abi": [
    {
      "inputs": [],
      "stateMutability": "nonpayable",
      "type": "constructor"
    },
    {
      "anonymous": false,
      "inputs": [
        {
          "indexed": false,
          "internalType": "uint256",
          "name": "index",
          "type": "uint256"
        },
        {
          "indexed": false,
          "internalType": "address",
          "name": "bettor",
          "type": "address"
        },
        {
          "indexed": false,
          "internalType": "uint256",
          "name": "amount",
          "type": "uint256"
        },
        {
          "indexed": false,
          "internalType": "bytes",
          "name": "challenges",
          "type": "bytes"
        },
        {
          "indexed": false,
          "internalType": "uint256",
          "name": "answerBlockNumber",
          "type": "uint256"
        }
      ],
      "name": "BET",
      "type": "event"
    },
    {
      "inputs": [],
      "name": "owner",
      "outputs": [
        {
          "internalType": "address",
          "name": "",
          "type": "address"
        }
      ],
      "stateMutability": "view",
      "type": "function",
      "constant": true
    },
    {
      "inputs": [],
      "name": "getPot",
      "outputs": [
        {
          "internalType": "uint256",
          "name": "pot",
          "type": "uint256"
        }
      ],
      "stateMutability": "view",
      "type": "function",
      "constant": true
    },
    {
      "inputs": [
        {
          "internalType": "bytes",
          "name": "challenges",
          "type": "bytes"
        }
      ],
      "name": "pushBet",
      "outputs": [
        {
          "internalType": "bool",
          "name": "",
          "type": "bool"
        }
      ],
      "stateMutability": "nonpayable",
      "type": "function"
    },
    {
      "inputs": [
        {
          "internalType": "uint256",
          "name": "index",
          "type": "uint256"
        }
      ],
      "name": "popBet",
      "outputs": [
        {
          "internalType": "bool",
          "name": "",
          "type": "bool"
        }
      ],
      "stateMutability": "nonpayable",
      "type": "function"
    },
    {
      "inputs": [
        {
          "internalType": "bytes",
          "name": "challenges",
          "type": "bytes"
        }
      ],
      "name": "bet",
      "outputs": [
        {
          "internalType": "bool",
          "name": "result",
          "type": "bool"
        }
      ],
      "stateMutability": "payable",
      "type": "function",
      "payable": true
    }
  ],
  "bytecode": "0x608060405234801561001057600080fd5b5033600360006101000a81548173ffffffffffffffffffffffffffffffffffffffff021916908373ffffffffffffffffffffffffffffffffffffffff160217905550610b1a806100616000396000f3fe60806040526004361061004a5760003560e01c8063403c9fa81461004f578063599eac8a1461007a5780638da5cb5b146100aa57806398214135146100d5578063d04c9a8c14610112575b600080fd5b34801561005b57600080fd5b5061006461014f565b604051610071919061050f565b60405180910390f35b610094600480360381019061008f9190610684565b610159565b6040516100a191906106e8565b60405180910390f35b3480156100b657600080fd5b506100bf61024e565b6040516100cc9190610744565b60405180910390f35b3480156100e157600080fd5b506100fc60048036038101906100f79190610684565b610274565b60405161010991906106e8565b60405180910390f35b34801561011e57600080fd5b506101396004803603810190610134919061078b565b61037c565b60405161014691906106e8565b60405180910390f35b6000600454905090565b60006611c37937e0800034146101a4576040517f08c379a000000000000000000000000000000000000000000000000000000000815260040161019b90610815565b60405180910390fd5b6101ad82610274565b6101ec576040517f08c379a00000000000000000000000000000000000000000000000000000000081526004016101e390610881565b60405180910390fd5b7f2fd14896e96d250bb5049b83d0198fc7663c624bc855bd734f54a2d56cab236b600160005461021c91906108d0565b33348560034361022c9190610904565b60405161023d9594939291906109e2565b60405180910390a160019050919050565b600360009054906101000a900473ffffffffffffffffffffffffffffffffffffffff1681565b600061027e6103dc565b33816020019073ffffffffffffffffffffffffffffffffffffffff16908173ffffffffffffffffffffffffffffffffffffffff16815250506003436102c39190610904565b8160000181815250508281604001819052508060026000805481526020019081526020016000206000820151816000015560208201518160010160006101000a81548173ffffffffffffffffffffffffffffffffffffffff021916908373ffffffffffffffffffffffffffffffffffffffff1602179055506040820151816002019080519060200190610357929190610413565b5090505060008081548092919061036d90610a3c565b91905055506001915050919050565b6000600260008381526020019081526020016000206000808201600090556001820160006101000a81549073ffffffffffffffffffffffffffffffffffffffff02191690556002820160006103d19190610499565b505060019050919050565b604051806060016040528060008152602001600073ffffffffffffffffffffffffffffffffffffffff168152602001606081525090565b82805461041f90610ab3565b90600052602060002090601f0160209004810192826104415760008555610488565b82601f1061045a57805160ff1916838001178555610488565b82800160010185558215610488579182015b8281111561048757825182559160200191906001019061046c565b5b50905061049591906104d9565b5090565b5080546104a590610ab3565b6000825580601f106104b757506104d6565b601f0160209004906000526020600020908101906104d591906104d9565b5b50565b5b808211156104f25760008160009055506001016104da565b5090565b6000819050919050565b610509816104f6565b82525050565b60006020820190506105246000830184610500565b92915050565b6000604051905090565b600080fd5b600080fd5b600080fd5b600080fd5b6000601f19601f8301169050919050565b7f4e487b7100000000000000000000000000000000000000000000000000000000600052604160045260246000fd5b61059182610548565b810181811067ffffffffffffffff821117156105b0576105af610559565b5b80604052505050565b60006105c361052a565b90506105cf8282610588565b919050565b600067ffffffffffffffff8211156105ef576105ee610559565b5b6105f882610548565b9050602081019050919050565b82818337600083830152505050565b6000610627610622846105d4565b6105b9565b90508281526020810184848401111561064357610642610543565b5b61064e848285610605565b509392505050565b600082601f83011261066b5761066a61053e565b5b813561067b848260208601610614565b91505092915050565b60006020828403121561069a57610699610534565b5b600082013567ffffffffffffffff8111156106b8576106b7610539565b5b6106c484828501610656565b91505092915050565b60008115159050919050565b6106e2816106cd565b82525050565b60006020820190506106fd60008301846106d9565b92915050565b600073ffffffffffffffffffffffffffffffffffffffff82169050919050565b600061072e82610703565b9050919050565b61073e81610723565b82525050565b60006020820190506107596000830184610735565b92915050565b610768816104f6565b811461077357600080fd5b50565b6000813590506107858161075f565b92915050565b6000602082840312156107a1576107a0610534565b5b60006107af84828501610776565b91505092915050565b600082825260208201905092915050565b7f4e4f5420456e6f75676820455448212100000000000000000000000000000000600082015250565b60006107ff6010836107b8565b915061080a826107c9565b602082019050919050565b6000602082019050818103600083015261082e816107f2565b9050919050565b7f4661696c20746f206164642061206e65772062657420696e666f000000000000600082015250565b600061086b601a836107b8565b915061087682610835565b602082019050919050565b6000602082019050818103600083015261089a8161085e565b9050919050565b7f4e487b7100000000000000000000000000000000000000000000000000000000600052601160045260246000fd5b60006108db826104f6565b91506108e6836104f6565b9250828210156108f9576108f86108a1565b5b828203905092915050565b600061090f826104f6565b915061091a836104f6565b9250827fffffffffffffffffffffffffffffffffffffffffffffffffffffffffffffffff0382111561094f5761094e6108a1565b5b828201905092915050565b600081519050919050565b600082825260208201905092915050565b60005b83811015610994578082015181840152602081019050610979565b838111156109a3576000848401525b50505050565b60006109b48261095a565b6109be8185610965565b93506109ce818560208601610976565b6109d781610548565b840191505092915050565b600060a0820190506109f76000830188610500565b610a046020830187610735565b610a116040830186610500565b8181036060830152610a2381856109a9565b9050610a326080830184610500565b9695505050505050565b6000610a47826104f6565b91507fffffffffffffffffffffffffffffffffffffffffffffffffffffffffffffffff8203610a7957610a786108a1565b5b600182019050919050565b7f4e487b7100000000000000000000000000000000000000000000000000000000600052602260045260246000fd5b60006002820490506001821680610acb57607f821691505b602082108103610ade57610add610a84565b5b5091905056fea26469706673582212207fb18becddf4570eff21c6afda6455485566fb116eb458a1a055f1f0315fe20264736f6c634300080d0033",
  "immutableReferences": {},
  "source": "// SPDX-License-Identifier: MIT\r\npragma solidity >=0.4.22 <0.9.0;\r\n\r\ncontract Lottery {\r\n    \r\n    //  ( , ,  )\r\n    struct Betinfo{\r\n        uint256 answerBlockNumber;\r\n        address payable bettor;\r\n        bytes challenges; //\r\n    }\r\n\r\n    uint256 private _tail; //\r\n    uint256 private _head;\r\n    mapping(uint256 => Betinfo) private _bets; //-   \r\n\r\n    address public owner;\r\n    uint256 private _pot;\r\n\r\n    event BET(uint256 index, address bettor , uint256 amount, bytes challenges, uint256 answerBlockNumber);\r\n\r\n    uint256 constant internal BET_AMOUNT = 5*10**15;\r\n    uint256 constant internal BET_BLOCK_INTERVAL = 3;\r\n    uint256 constant internal BLOCK_LIMIT = 256;\r\n\r\n    \r\n\r\n    constructor() {\r\n        owner = msg.sender;\r\n    }\r\n\r\n \r\n\r\n    function getPot() public view returns (uint256 pot){\r\n        return _pot;\r\n    }\r\n\r\n\r\n    function pushBet(bytes memory challenges) public returns (bool){\r\n        Betinfo memory b;\r\n        b.bettor =  payable(msg.sender);\r\n        \r\n        b.answerBlockNumber = block.number + BET_BLOCK_INTERVAL;\r\n        b.challenges = challenges;\r\n\r\n        _bets[_tail] = b;\r\n        _tail++;\r\n\r\n        return true;\r\n    }\r\n\r\n    function popBet(uint256 index) public returns (bool){\r\n        delete _bets[index];\r\n        return true;\r\n    }\r\n    //BET \r\n        // save the bet to the queue\r\n    \r\n    /**\r\n     * @dev .  0.005ETH ,  1byte .\r\n     *      distribute  .\r\n     * @param challenges    1byte\r\n     * @return result     bool \r\n     */\r\n    function bet(bytes memory challenges) public payable returns(bool result){\r\n        //check the proper eth is sent\r\n\r\n        require(msg.value == BET_AMOUNT, \"NOT Enough ETH!!\");\r\n        \r\n        //push bet the queue\r\n        require(pushBet(challenges), \"Fail to add a new bet info\");\r\n        // emit event log\r\n        emit BET(_tail -1 , msg.sender, msg.value, challenges, block.number+BET_BLOCK_INTERVAL);\r\n        \r\n\r\n        return true;\r\n    }\r\n    \r\n    // Distribue \r\n        // check the answer\r\n        //\r\n    \r\n}",
  "sourcePath": "C:\\Users\\soll0\\Desktop\\solidity\\contracts\\Lottery.sol",
  "compiler": {
    "name": "solc",
    "version": "0.8.13+commit.abaa5c0e.Emscripten.clang"
  },
  "schemaVersion": "3.4.16",
  "updatedAt": "2024-12-22T12:31:31.372Z",
  "networkType": "ethereum",
  "devdoc": {
    "kind": "dev",
    "methods": {
      "bet(bytes)": {
        "details": ".  0.005ETH ,  1byte .      distribute  .",
        "params": {
          "challenges": "   1byte"
        },
        "returns": {
          "result": "    bool "
        }
      }
    },
    "version": 1
  },
  "userdoc": {
    "kind": "user",
    "methods": {},
    "version": 1
  }
}