{
  "contractName": "Lottery",
  "abi": [
    {
      "inputs": [],
      "stateMutability": "nonpayable",
      "type": "constructor"
    },
    {
      "anonymous": false,
      "inputs": [
        {
          "indexed": false,
          "internalType": "uint256",
          "name": "index",
          "type": "uint256"
        },
        {
          "indexed": false,
          "internalType": "address",
          "name": "bettor",
          "type": "address"
        },
        {
          "indexed": false,
          "internalType": "uint256",
          "name": "amount",
          "type": "uint256"
        },
        {
          "indexed": false,
          "internalType": "bytes",
          "name": "challenges",
          "type": "bytes"
        },
        {
          "indexed": false,
          "internalType": "uint256",
          "name": "answerBlockNumber",
          "type": "uint256"
        }
      ],
      "name": "BET",
      "type": "event"
    },
    {
      "anonymous": false,
      "inputs": [
        {
          "indexed": false,
          "internalType": "uint256",
          "name": "index",
          "type": "uint256"
        },
        {
          "indexed": false,
          "internalType": "address",
          "name": "bettor",
          "type": "address"
        },
        {
          "indexed": false,
          "internalType": "uint256",
          "name": "amount",
          "type": "uint256"
        },
        {
          "indexed": false,
          "internalType": "bytes",
          "name": "challenges",
          "type": "bytes"
        },
        {
          "indexed": false,
          "internalType": "bytes1",
          "name": "answer",
          "type": "bytes1"
        },
        {
          "indexed": false,
          "internalType": "uint256",
          "name": "answerBlockNumber",
          "type": "uint256"
        }
      ],
      "name": "DRAW",
      "type": "event"
    },
    {
      "anonymous": false,
      "inputs": [
        {
          "indexed": false,
          "internalType": "uint256",
          "name": "index",
          "type": "uint256"
        },
        {
          "indexed": false,
          "internalType": "address",
          "name": "bettor",
          "type": "address"
        },
        {
          "indexed": false,
          "internalType": "uint256",
          "name": "amount",
          "type": "uint256"
        },
        {
          "indexed": false,
          "internalType": "bytes",
          "name": "challenges",
          "type": "bytes"
        },
        {
          "indexed": false,
          "internalType": "bytes1",
          "name": "answer",
          "type": "bytes1"
        },
        {
          "indexed": false,
          "internalType": "uint256",
          "name": "answerBlockNumber",
          "type": "uint256"
        }
      ],
      "name": "FAIL",
      "type": "event"
    },
    {
      "anonymous": false,
      "inputs": [
        {
          "indexed": false,
          "internalType": "uint256",
          "name": "index",
          "type": "uint256"
        },
        {
          "indexed": false,
          "internalType": "address",
          "name": "bettor",
          "type": "address"
        },
        {
          "indexed": false,
          "internalType": "uint256",
          "name": "amount",
          "type": "uint256"
        },
        {
          "indexed": false,
          "internalType": "bytes",
          "name": "challenges",
          "type": "bytes"
        },
        {
          "indexed": false,
          "internalType": "uint256",
          "name": "answerBlockNumber",
          "type": "uint256"
        }
      ],
      "name": "REFUND",
      "type": "event"
    },
    {
      "anonymous": false,
      "inputs": [
        {
          "indexed": false,
          "internalType": "uint256",
          "name": "index",
          "type": "uint256"
        },
        {
          "indexed": false,
          "internalType": "address",
          "name": "bettor",
          "type": "address"
        },
        {
          "indexed": false,
          "internalType": "uint256",
          "name": "amount",
          "type": "uint256"
        },
        {
          "indexed": false,
          "internalType": "bytes",
          "name": "challenges",
          "type": "bytes"
        },
        {
          "indexed": false,
          "internalType": "bytes1",
          "name": "answer",
          "type": "bytes1"
        },
        {
          "indexed": false,
          "internalType": "uint256",
          "name": "answerBlockNumber",
          "type": "uint256"
        }
      ],
      "name": "WIN",
      "type": "event"
    },
    {
      "inputs": [],
      "name": "answerForTest",
      "outputs": [
        {
          "internalType": "bytes32",
          "name": "",
          "type": "bytes32"
        }
      ],
      "stateMutability": "view",
      "type": "function"
    },
    {
      "inputs": [],
      "name": "owner",
      "outputs": [
        {
          "internalType": "address payable",
          "name": "",
          "type": "address"
        }
      ],
      "stateMutability": "view",
      "type": "function"
    },
    {
      "inputs": [],
      "name": "getPot",
      "outputs": [
        {
          "internalType": "uint256",
          "name": "pot",
          "type": "uint256"
        }
      ],
      "stateMutability": "view",
      "type": "function"
    },
    {
      "inputs": [
        {
          "internalType": "uint256",
          "name": "index",
          "type": "uint256"
        }
      ],
      "name": "getBetInfo",
      "outputs": [
        {
          "internalType": "uint256",
          "name": "answerBlockNumber",
          "type": "uint256"
        },
        {
          "internalType": "address",
          "name": "bettor",
          "type": "address"
        },
        {
          "internalType": "bytes",
          "name": "challenges",
          "type": "bytes"
        }
      ],
      "stateMutability": "view",
      "type": "function"
    },
    {
      "inputs": [
        {
          "internalType": "bytes",
          "name": "challenges",
          "type": "bytes"
        }
      ],
      "name": "pushBet",
      "outputs": [
        {
          "internalType": "bool",
          "name": "",
          "type": "bool"
        }
      ],
      "stateMutability": "nonpayable",
      "type": "function"
    },
    {
      "inputs": [
        {
          "internalType": "uint256",
          "name": "index",
          "type": "uint256"
        }
      ],
      "name": "popBet",
      "outputs": [
        {
          "internalType": "bool",
          "name": "",
          "type": "bool"
        }
      ],
      "stateMutability": "nonpayable",
      "type": "function"
    },
    {
      "inputs": [
        {
          "internalType": "bytes",
          "name": "challenges",
          "type": "bytes"
        }
      ],
      "name": "bet",
      "outputs": [
        {
          "internalType": "bool",
          "name": "result",
          "type": "bool"
        }
      ],
      "stateMutability": "payable",
      "type": "function"
    },
    {
      "inputs": [],
      "name": "distribute",
      "outputs": [],
      "stateMutability": "nonpayable",
      "type": "function"
    },
    {
      "inputs": [
        {
          "internalType": "bytes32",
          "name": "answer",
          "type": "bytes32"
        }
      ],
      "name": "setAnswerForTest",
      "outputs": [
        {
          "internalType": "bool",
          "name": "result",
          "type": "bool"
        }
      ],
      "stateMutability": "nonpayable",
      "type": "function"
    },
    {
      "inputs": [
        {
          "internalType": "bytes",
          "name": "challenges",
          "type": "bytes"
        },
        {
          "internalType": "bytes32",
          "name": "answer",
          "type": "bytes32"
        }
      ],
      "name": "isMatch",
      "outputs": [
        {
          "internalType": "enum Lottery.BettingResult",
          "name": "",
          "type": "uint8"
        }
      ],
      "stateMutability": "pure",
      "type": "function"
    }
  ],
  "bytecode": "0x60806040526000600560006101000a81548160ff02191690831515021790555034801561002b57600080fd5b5033600360006101000a81548173ffffffffffffffffffffffffffffffffffffffff021916908373ffffffffffffffffffffffffffffffffffffffff160217905550611efe8061007c6000396000f3fe6080604052600436106100915760003560e01c806384f7e4f01161005957806384f7e4f0146101aa5780638da5cb5b146101d55780639821413514610200578063d04c9a8c1461023d578063e4fc6b6d1461027a57610091565b806327990a5a14610096578063403c9fa8146100d3578063599eac8a146100fe5780637009fa361461012e57806379141f801461016b575b600080fd5b3480156100a257600080fd5b506100bd60048036038101906100b891906115d0565b610291565b6040516100ca91906116a3565b60405180910390f35b3480156100df57600080fd5b506100e86108ce565b6040516100f591906116d7565b60405180910390f35b610118600480360381019061011391906116f2565b6108d8565b6040516101259190611756565b60405180910390f35b34801561013a57600080fd5b5061015560048036038101906101509190611771565b6109cd565b6040516101629190611756565b60405180910390f35b34801561017757600080fd5b50610192600480360381019061018d91906117ca565b610a6f565b6040516101a1939291906118c0565b60405180910390f35b3480156101b657600080fd5b506101bf610ba5565b6040516101cc919061190d565b60405180910390f35b3480156101e157600080fd5b506101ea610bab565b6040516101f79190611949565b60405180910390f35b34801561020c57600080fd5b50610227600480360381019061022291906116f2565b610bd1565b6040516102349190611756565b60405180910390f35b34801561024957600080fd5b50610264600480360381019061025f91906117ca565b610cd9565b6040516102719190611756565b60405180910390f35b34801561028657600080fd5b5061028f610d39565b005b600080600167ffffffffffffffff8111156102af576102ae61146f565b5b6040519080825280601f01601f1916602001820160405280156102e15781602001600182028036833780820191505090505b5090506000600167ffffffffffffffff8111156103015761030061146f565b5b6040519080825280601f01601f1916602001820160405280156103335781602001600182028036833780820191505090505b5090506000600167ffffffffffffffff8111156103535761035261146f565b5b6040519080825280601f01601f1916602001820160405280156103855781602001600182028036833780820191505090505b5090506000600167ffffffffffffffff8111156103a5576103a461146f565b5b6040519080825280601f01601f1916602001820160405280156103d75781602001600182028036833780820191505090505b509050600480886000815181106103f1576103f0611964565b5b602001015160f81c60f81b7effffffffffffffffffffffffffffffffffffffffffffffffffffffffffffff1916901c7effffffffffffffffffffffffffffffffffffffffffffffffffffffffffffff1916901b8460008151811061045857610457611964565b5b60200101907effffffffffffffffffffffffffffffffffffffffffffffffffffffffffffff1916908160001a9053506004808860008151811061049e5761049d611964565b5b602001015160f81c60f81b7effffffffffffffffffffffffffffffffffffffffffffffffffffffffffffff1916901b7effffffffffffffffffffffffffffffffffffffffffffffffffffffffffffff1916901c8360008151811061050557610504611964565b5b60200101907effffffffffffffffffffffffffffffffffffffffffffffffffffffffffffff1916908160001a9053506004808760006020811061054b5761054a611964565b5b1a60f81b7effffffffffffffffffffffffffffffffffffffffffffffffffffffffffffff1916901c7effffffffffffffffffffffffffffffffffffffffffffffffffffffffffffff1916901b826000815181106105ab576105aa611964565b5b60200101907effffffffffffffffffffffffffffffffffffffffffffffffffffffffffffff1916908160001a905350600480876000602081106105f1576105f0611964565b5b1a60f81b7effffffffffffffffffffffffffffffffffffffffffffffffffffffffffffff1916901b7effffffffffffffffffffffffffffffffffffffffffffffffffffffffffffff1916901c8160008151811061065157610650611964565b5b60200101907effffffffffffffffffffffffffffffffffffffffffffffffffffffffffffff1916908160001a9053508360008151811061069457610693611964565b5b602001015160f81c60f81b7effffffffffffffffffffffffffffffffffffffffffffffffffffffffffffff1916826000815181106106d5576106d4611964565b5b602001015160f81c60f81b7effffffffffffffffffffffffffffffffffffffffffffffffffffffffffffff191614801561078e57508260008151811061071e5761071d611964565b5b602001015160f81c60f81b7effffffffffffffffffffffffffffffffffffffffffffffffffffffffffffff19168160008151811061075f5761075e611964565b5b602001015160f81c60f81b7effffffffffffffffffffffffffffffffffffffffffffffffffffffffffffff1916145b156107a05760019450505050506108c8565b836000815181106107b4576107b3611964565b5b602001015160f81c60f81b7effffffffffffffffffffffffffffffffffffffffffffffffffffffffffffff1916826000815181106107f5576107f4611964565b5b602001015160f81c60f81b7effffffffffffffffffffffffffffffffffffffffffffffffffffffffffffff191614806108ad57508260008151811061083d5761083c611964565b5b602001015160f81c60f81b7effffffffffffffffffffffffffffffffffffffffffffffffffffffffffffff19168160008151811061087e5761087d611964565b5b602001015160f81c60f81b7effffffffffffffffffffffffffffffffffffffffffffffffffffffffffffff1916145b156108bf5760029450505050506108c8565b60009450505050505b92915050565b6000600454905090565b60006611c37937e080003414610923576040517f08c379a000000000000000000000000000000000000000000000000000000000815260040161091a906119f0565b60405180910390fd5b61092c82610bd1565b61096b576040517f08c379a000000000000000000000000000000000000000000000000000000000815260040161096290611a5c565b60405180910390fd5b7f2fd14896e96d250bb5049b83d0198fc7663c624bc855bd734f54a2d56cab236b600160005461099b9190611aab565b3334856003436109ab9190611adf565b6040516109bc959493929190611b35565b60405180910390a160019050919050565b6000600360009054906101000a900473ffffffffffffffffffffffffffffffffffffffff1673ffffffffffffffffffffffffffffffffffffffff163373ffffffffffffffffffffffffffffffffffffffff1614610a5f576040517f08c379a0000000000000000000000000000000000000000000000000000000008152600401610a5690611c01565b60405180910390fd5b8160068190555060019050919050565b6000806060600060026000868152602001908152602001600020604051806060016040529081600082015481526020016001820160009054906101000a900473ffffffffffffffffffffffffffffffffffffffff1673ffffffffffffffffffffffffffffffffffffffff1673ffffffffffffffffffffffffffffffffffffffff168152602001600282018054610b0490611c50565b80601f0160208091040260200160405190810160405280929190818152602001828054610b3090611c50565b8015610b7d5780601f10610b5257610100808354040283529160200191610b7d565b820191906000526020600020905b815481529060010190602001808311610b6057829003601f168201915b5050505050815250509050806000015193508060200151925080604001519150509193909250565b60065481565b600360009054906101000a900473ffffffffffffffffffffffffffffffffffffffff1681565b6000610bdb611326565b33816020019073ffffffffffffffffffffffffffffffffffffffff16908173ffffffffffffffffffffffffffffffffffffffff1681525050600343610c209190611adf565b8160000181815250508281604001819052508060026000805481526020019081526020016000206000820151816000015560208201518160010160006101000a81548173ffffffffffffffffffffffffffffffffffffffff021916908373ffffffffffffffffffffffffffffffffffffffff1602179055506040820151816002019080519060200190610cb492919061135d565b50905050600080815480929190610cca90611c81565b91905055506001915050919050565b6000600260008381526020019081526020016000206000808201600090556001820160006101000a81549073ffffffffffffffffffffffffffffffffffffffff0219169055600282016000610d2e91906113e3565b505060019050919050565b6000610d43611326565b600060015492505b6000548310156111be5760026000848152602001908152602001600020604051806060016040529081600082015481526020016001820160009054906101000a900473ffffffffffffffffffffffffffffffffffffffff1673ffffffffffffffffffffffffffffffffffffffff1673ffffffffffffffffffffffffffffffffffffffff168152602001600282018054610de390611c50565b80601f0160208091040260200160405190810160405280929190818152602001828054610e0f90611c50565b8015610e5c5780601f10610e3157610100808354040283529160200191610e5c565b820191906000526020600020905b815481529060010190602001808311610e3f57829003601f168201915b50505050508152505091506000610e7683600001516111ca565b91506000806002811115610e8d57610e8c61162c565b5b836002811115610ea057610e9f61162c565b5b036110de576000610eb4856000015161122c565b9050610ec4856040015182610291565b915060016002811115610eda57610ed961162c565b5b826002811115610eed57610eec61162c565b5b03610f8357610f1485602001516611c37937e08000600454610f0f9190611adf565b611254565b925060006004819055507f67415885a5103323dc0cd948ce24b43bdaf4fc3854e6f471576ec9a760cb4ec486866020015185886040015185600060208110610f5f57610f5e611964565b5b1a60f81b8a60000151604051610f7a96959493929190611d63565b60405180910390a15b60006002811115610f9757610f9661162c565b5b826002811115610faa57610fa961162c565b5b03611035576611c37937e0800060046000828254610fc89190611adf565b925050819055507f190414744fb2a511f6dde54b4c108d49527e6e0825b826243936dc94016f5c1c868660200151600088604001518560006020811061101157611010611964565b5b1a60f81b8a6000015160405161102c96959493929190611e06565b60405180910390a15b6002808111156110485761104761162c565b5b82600281111561105b5761105a61162c565b5b036110dc5761107585602001516611c37937e08000611254565b92507f328c47ba2141843458837d5a595cfb817baf22da9245bb6e1e8626d9e78ece6a868660200151858860400151856000602081106110b8576110b7611964565b5b1a60f81b8a600001516040516110d396959493929190611d63565b60405180910390a15b505b600160028111156110f2576110f161162c565b5b8360028111156111055761110461162c565b5b036111115750506111be565b6002808111156111245761112361162c565b5b8360028111156111375761113661162c565b5b0361119f5761115184602001516611c37937e08000611254565b91507fb9e770a7cb81e48633298e345872ba6588ee43da5e788b452485e2b4ac8f13248585602001518487604001518860000151604051611196959493929190611e6e565b60405180910390a15b6111a885610cd9565b50505082806111b690611c81565b935050610d4b565b82600181905550505050565b600081431180156111e75750610100826111e49190611adf565b43105b156111f55760009050611227565b8143116112055760019050611227565b610100826112139190611adf565b43106112225760029050611227565b600290505b919050565b6000600560009054906101000a900460ff1661124a5760065461124d565b81405b9050919050565b60008060009050600081846112699190611aab565b90508473ffffffffffffffffffffffffffffffffffffffff166108fc829081150290604051600060405180830381858888f193505050501580156112b1573d6000803e3d6000fd5b50600360009054906101000a900473ffffffffffffffffffffffffffffffffffffffff1673ffffffffffffffffffffffffffffffffffffffff166108fc839081150290604051600060405180830381858888f1935050505015801561131a573d6000803e3d6000fd5b50809250505092915050565b604051806060016040528060008152602001600073ffffffffffffffffffffffffffffffffffffffff168152602001606081525090565b82805461136990611c50565b90600052602060002090601f01602090048101928261138b57600085556113d2565b82601f106113a457805160ff19168380011785556113d2565b828001600101855582156113d2579182015b828111156113d15782518255916020019190600101906113b6565b5b5090506113df9190611423565b5090565b5080546113ef90611c50565b6000825580601f106114015750611420565b601f01602090049060005260206000209081019061141f9190611423565b5b50565b5b8082111561143c576000816000905550600101611424565b5090565b6000604051905090565b600080fd5b600080fd5b600080fd5b600080fd5b6000601f19601f8301169050919050565b7f4e487b7100000000000000000000000000000000000000000000000000000000600052604160045260246000fd5b6114a78261145e565b810181811067ffffffffffffffff821117156114c6576114c561146f565b5b80604052505050565b60006114d9611440565b90506114e5828261149e565b919050565b600067ffffffffffffffff8211156115055761150461146f565b5b61150e8261145e565b9050602081019050919050565b82818337600083830152505050565b600061153d611538846114ea565b6114cf565b90508281526020810184848401111561155957611558611459565b5b61156484828561151b565b509392505050565b600082601f83011261158157611580611454565b5b813561159184826020860161152a565b91505092915050565b6000819050919050565b6115ad8161159a565b81146115b857600080fd5b50565b6000813590506115ca816115a4565b92915050565b600080604083850312156115e7576115e661144a565b5b600083013567ffffffffffffffff8111156116055761160461144f565b5b6116118582860161156c565b9250506020611622858286016115bb565b9150509250929050565b7f4e487b7100000000000000000000000000000000000000000000000000000000600052602160045260246000fd5b6003811061166c5761166b61162c565b5b50565b600081905061167d8261165b565b919050565b600061168d8261166f565b9050919050565b61169d81611682565b82525050565b60006020820190506116b86000830184611694565b92915050565b6000819050919050565b6116d1816116be565b82525050565b60006020820190506116ec60008301846116c8565b92915050565b6000602082840312156117085761170761144a565b5b600082013567ffffffffffffffff8111156117265761172561144f565b5b6117328482850161156c565b91505092915050565b60008115159050919050565b6117508161173b565b82525050565b600060208201905061176b6000830184611747565b92915050565b6000602082840312156117875761178661144a565b5b6000611795848285016115bb565b91505092915050565b6117a7816116be565b81146117b257600080fd5b50565b6000813590506117c48161179e565b92915050565b6000602082840312156117e0576117df61144a565b5b60006117ee848285016117b5565b91505092915050565b600073ffffffffffffffffffffffffffffffffffffffff82169050919050565b6000611822826117f7565b9050919050565b61183281611817565b82525050565b600081519050919050565b600082825260208201905092915050565b60005b83811015611872578082015181840152602081019050611857565b83811115611881576000848401525b50505050565b600061189282611838565b61189c8185611843565b93506118ac818560208601611854565b6118b58161145e565b840191505092915050565b60006060820190506118d560008301866116c8565b6118e26020830185611829565b81810360408301526118f48184611887565b9050949350505050565b6119078161159a565b82525050565b600060208201905061192260008301846118fe565b92915050565b6000611933826117f7565b9050919050565b61194381611928565b82525050565b600060208201905061195e600083018461193a565b92915050565b7f4e487b7100000000000000000000000000000000000000000000000000000000600052603260045260246000fd5b600082825260208201905092915050565b7f4e4f5420456e6f75676820455448212100000000000000000000000000000000600082015250565b60006119da601083611993565b91506119e5826119a4565b602082019050919050565b60006020820190508181036000830152611a09816119cd565b9050919050565b7f4661696c20746f206164642061206e65772062657420696e666f000000000000600082015250565b6000611a46601a83611993565b9150611a5182611a10565b602082019050919050565b60006020820190508181036000830152611a7581611a39565b9050919050565b7f4e487b7100000000000000000000000000000000000000000000000000000000600052601160045260246000fd5b6000611ab6826116be565b9150611ac1836116be565b925082821015611ad457611ad3611a7c565b5b828203905092915050565b6000611aea826116be565b9150611af5836116be565b9250827fffffffffffffffffffffffffffffffffffffffffffffffffffffffffffffffff03821115611b2a57611b29611a7c565b5b828201905092915050565b600060a082019050611b4a60008301886116c8565b611b576020830187611829565b611b6460408301866116c8565b8181036060830152611b768185611887565b9050611b8560808301846116c8565b9695505050505050565b7f6f6e6c79206f77656e65722063616e207365742074686520616e73776572206660008201527f6f722074657374206d6f64650000000000000000000000000000000000000000602082015250565b6000611beb602c83611993565b9150611bf682611b8f565b604082019050919050565b60006020820190508181036000830152611c1a81611bde565b9050919050565b7f4e487b7100000000000000000000000000000000000000000000000000000000600052602260045260246000fd5b60006002820490506001821680611c6857607f821691505b602082108103611c7b57611c7a611c21565b5b50919050565b6000611c8c826116be565b91507fffffffffffffffffffffffffffffffffffffffffffffffffffffffffffffffff8203611cbe57611cbd611a7c565b5b600182019050919050565b6000819050919050565b6000611cee611ce9611ce4846117f7565b611cc9565b6117f7565b9050919050565b6000611d0082611cd3565b9050919050565b6000611d1282611cf5565b9050919050565b611d2281611d07565b82525050565b60007fff0000000000000000000000000000000000000000000000000000000000000082169050919050565b611d5d81611d28565b82525050565b600060c082019050611d7860008301896116c8565b611d856020830188611d19565b611d9260408301876116c8565b8181036060830152611da48186611887565b9050611db36080830185611d54565b611dc060a08301846116c8565b979650505050505050565b6000819050919050565b6000611df0611deb611de684611dcb565b611cc9565b6116be565b9050919050565b611e0081611dd5565b82525050565b600060c082019050611e1b60008301896116c8565b611e286020830188611d19565b611e356040830187611df7565b8181036060830152611e478186611887565b9050611e566080830185611d54565b611e6360a08301846116c8565b979650505050505050565b600060a082019050611e8360008301886116c8565b611e906020830187611d19565b611e9d60408301866116c8565b8181036060830152611eaf8185611887565b9050611ebe60808301846116c8565b969550505050505056fea2646970667358221220eea5ccd1625697c1d17082268677e697e953c1de19c6905839b44627da56cfac64736f6c634300080d0033",
  "immutableReferences": {},
  "source": "// SPDX-License-Identifier: MIT\r\npragma solidity >=0.4.22 <0.9.0;\r\n\r\ncontract Lottery {\r\n    \r\n    //  ( , ,  )\r\n    struct BetInfo{\r\n        uint256 answerBlockNumber;\r\n        address payable bettor;\r\n        bytes challenges; //\r\n    }\r\n\r\n    uint256 private _tail; //\r\n    uint256 private _head;\r\n    mapping(uint256 => BetInfo) private _bets; //-   \r\n\r\n    address payable public owner;\r\n    uint256 private _pot;\r\n\r\n    bool private mode = false; // false: use answer for test mode , true : real block hash\r\n    bytes32 public answerForTest;\r\n\r\n    event BET(uint256 index, address bettor , uint256 amount, bytes challenges, uint256 answerBlockNumber);\r\n    event WIN(uint256 index, address bettor, uint256 amount, bytes challenges, bytes1 answer, uint256 answerBlockNumber);\r\n    event FAIL(uint256 index, address bettor, uint256 amount, bytes challenges, bytes1 answer, uint256 answerBlockNumber);\r\n    event DRAW(uint256 index, address bettor, uint256 amount, bytes challenges, bytes1 answer, uint256 answerBlockNumber);\r\n    event REFUND(uint256 index, address bettor, uint256 amount, bytes challenges, uint256 answerBlockNumber);\r\n\r\n\r\n    uint256 constant internal BET_AMOUNT = 5*10**15;\r\n    uint256 constant internal BET_BLOCK_INTERVAL = 3;\r\n    uint256 constant internal BLOCK_LIMIT = 256;\r\n\r\n    enum BlockStatus {Checkable, NotRevealed, BlockLimitPassed}\r\n    enum BettingResult{Fail,Win,Draw}\r\n    constructor() {\r\n        owner = payable(msg.sender);\r\n    }\r\n\r\n \r\n\r\n    function getPot() public view returns (uint256 pot){\r\n        return _pot;\r\n    }\r\n    \r\n    function getBetInfo(uint256 index) public view returns (uint256 answerBlockNumber, address bettor, bytes memory challenges) {\r\n        BetInfo memory b = _bets[index];\r\n        answerBlockNumber = b.answerBlockNumber;\r\n        bettor = b.bettor;\r\n        challenges = b.challenges;\r\n    }\r\n\r\n\r\n    function pushBet(bytes memory challenges) public returns (bool){\r\n        \r\n        BetInfo memory b;\r\n        \r\n        b.bettor =  payable(msg.sender); //20byte\r\n        b.answerBlockNumber = block.number + BET_BLOCK_INTERVAL; //unt256 = 32byte 20000\r\n        b.challenges = challenges; //byte 20000\r\n\r\n        _bets[_tail] = b; //    \r\n        _tail++;  // 20000\r\n        // 60000  = 96802 \r\n\r\n        return true;\r\n    }\r\n\r\n    function popBet(uint256 index) public returns (bool){\r\n        delete _bets[index];\r\n        return true;\r\n    }\r\n    //BET \r\n        // save the bet to the queue\r\n    \r\n    /**\r\n     * @dev .  0.005ETH ,  1byte .\r\n     *      distribute  .\r\n     * @param challenges    1byte\r\n     * @return result     bool \r\n     */\r\n    function bet(bytes memory challenges) public payable returns(bool result){\r\n        //check the proper eth is sent\r\n\r\n        require(msg.value == BET_AMOUNT, \"NOT Enough ETH!!\");\r\n        \r\n        //push bet the queue\r\n        require(pushBet(challenges), \"Fail to add a new bet info\");\r\n        // emit event log\r\n        emit BET(_tail -1 , msg.sender, msg.value, challenges, block.number+BET_BLOCK_INTERVAL); // 375  x   , 4000~6000 \r\n        \r\n        return true;\r\n    }\r\n    \r\n    // Distribue \r\n\r\n    /**\r\n     * @dev     . \r\n     *   :  ,   :  ,  ,  :  , \r\n     */\r\n    function distribute() public{\r\n        // head 4 5 6 7 8 9 10 11 12 tail\r\n        uint256 cur; \r\n        BetInfo memory b;\r\n        BlockStatus currentBlockStatus;\r\n\r\n        for(cur =_head; cur<_tail; cur++){\r\n            b = _bets[cur];\r\n            uint256 transferAmount;\r\n            currentBlockStatus = getBlockStatus(b.answerBlockNumber);\r\n            BettingResult currentBettingResult;\r\n\r\n\r\n            // Checkable : block.number > AnswerBlockNumber && block.number  <   AnswerBlockNumber  + Blick_Limit\r\n            if(currentBlockStatus == BlockStatus.Checkable){\r\n\r\n                bytes32 answerBlockHash = getAnswerBlockHash(b.answerBlockNumber);\r\n                currentBettingResult = isMatch(b.challenges, answerBlockHash);\r\n\r\n\r\n                // if win , bettor gets pot\r\n                if(currentBettingResult == BettingResult.Win){\r\n                    //transfer pot \r\n                     transferAmount= transferAfterPayingFee(b.bettor, _pot + BET_AMOUNT);\r\n                    //pot = 0 \r\n                    _pot = 0;\r\n                    // emit event(WIN)\r\n                    \r\n                    emit WIN(cur, b.bettor, transferAmount, b.challenges, answerBlockHash[0], b.answerBlockNumber);\r\n                }\r\n\r\n                // if fail, beetor's money goes pot\r\n                if(currentBettingResult == BettingResult.Fail){\r\n                    //pot = pot + BET_AMOUNT\r\n                    _pot += BET_AMOUNT;\r\n\r\n                    // emit event(FAIL)\r\n                    emit FAIL(cur, b.bettor, 0 , b.challenges, answerBlockHash[0], b.answerBlockNumber);\r\n\r\n                }\r\n                    //\r\n                // if draw, refund bettors' money\r\n                if(currentBettingResult == BettingResult.Draw){\r\n                    // transfer only BET_AMOUNT\r\n                     transferAmount= transferAfterPayingFee(b.bettor, BET_AMOUNT);\r\n                    // emit event(DRAW)\r\n                    emit DRAW(cur, b.bettor, transferAmount , b.challenges, answerBlockHash[0], b.answerBlockNumber);\r\n\r\n                }\r\n            }\r\n            // Not Revealed : block.number <= AnswerBlocknumber \r\n            if(currentBlockStatus == BlockStatus.NotRevealed){\r\n                break;\r\n            }\r\n\r\n            // Block Limit papssed : block.number >= AnswerBlockNumber + Block_LIMIT\r\n            if(currentBlockStatus == BlockStatus.BlockLimitPassed){\r\n                // refund\r\n                transferAmount= transferAfterPayingFee(b.bettor, BET_AMOUNT);\r\n\r\n                // emit refund \r\n                emit REFUND(cur, b.bettor, transferAmount , b.challenges, b.answerBlockNumber);\r\n\r\n            }     \r\n\r\n            popBet(cur);\r\n\r\n        }\r\n        _head = cur;\r\n    }\r\n    function transferAfterPayingFee(address payable addr, uint256 amount) internal returns(uint256){\r\n        \r\n        //uint256 fee = amount / 100;\r\n        uint256 fee = 0;\r\n        \r\n        uint256 amountWithoutFee = amount - fee;\r\n        //transfer to addr \r\n        addr.transfer(amountWithoutFee);\r\n        \r\n        //transfer to owner\r\n        owner.transfer(fee);\r\n\r\n        //call(), send , transfer \r\n        return amountWithoutFee;\r\n    }\r\n\r\n    function setAnswerForTest(bytes32 answer) public returns (bool result){\r\n        require(msg.sender == owner, \"only owener can set the answer for test mode\");\r\n        answerForTest = answer;\r\n        return true;\r\n    }\r\n    function getAnswerBlockHash(uint256 answerBlockNumber) internal view returns (bytes32 answer){\r\n        return mode ? blockhash(answerBlockNumber) : answerForTest;\r\n    }\r\n    /**\r\n     * @dev   \r\n     * @param challenges \r\n     * @param answer \r\n     * @return  \r\n     */\r\n    function isMatch(bytes memory challenges, bytes32 answer) public pure returns (BettingResult) {\r\n        // Create bytes memory for comparison\r\n        bytes memory c1 = new bytes(1);\r\n        bytes memory c2 = new bytes(1);\r\n        bytes memory a1 = new bytes(1);\r\n        bytes memory a2 = new bytes(1);\r\n\r\n        c1[0] = challenges[0] >> 4 << 4; // Extract first nibble\r\n        c2[0] = challenges[0] << 4 >> 4; // Extract second nibble\r\n\r\n        a1[0] = answer[0] >> 4 << 4; // Extract first nibble\r\n        a2[0] = answer[0] << 4 >> 4; // Extract second nibble\r\n\r\n        if (a1[0] == c1[0] && a2[0] == c2[0]) {\r\n            return BettingResult.Win;\r\n        }\r\n        if (a1[0] == c1[0] || a2[0] == c2[0]) {\r\n            return BettingResult.Draw;\r\n        }\r\n        return BettingResult.Fail;\r\n    }\r\n\r\n\r\n    function getBlockStatus(uint256 answerBlockNumber) internal view returns (BlockStatus){\r\n        if(block.number > answerBlockNumber && block.number  <   answerBlockNumber  + BLOCK_LIMIT){\r\n            return BlockStatus.Checkable;\r\n        }\r\n        if(block.number <= answerBlockNumber ){\r\n            return BlockStatus.NotRevealed;\r\n        }\r\n        if(block.number >= answerBlockNumber + BLOCK_LIMIT){\r\n            return BlockStatus.BlockLimitPassed;\r\n        }\r\n        return BlockStatus.BlockLimitPassed;\r\n\r\n    }\r\n        \r\n    \r\n}",
  "sourcePath": "C:\\Users\\soll0\\Desktop\\24 \\\\Betting_Dapp\\contracts\\Lottery.sol",
  "compiler": {
    "name": "solc",
    "version": "0.8.13+commit.abaa5c0e.Emscripten.clang"
  },
  "schemaVersion": "3.4.16",
  "updatedAt": "2024-12-25T10:49:16.222Z",
  "devdoc": {
    "kind": "dev",
    "methods": {
      "bet(bytes)": {
        "details": ".  0.005ETH ,  1byte .      distribute  .",
        "params": {
          "challenges": "   1byte"
        },
        "returns": {
          "result": "    bool "
        }
      },
      "distribute()": {
        "details": "    .    :  ,   :  ,  ,  :  , "
      },
      "isMatch(bytes,bytes32)": {
        "details": "  ",
        "params": {
          "answer": "",
          "challenges": ""
        },
        "returns": {
          "_0": " "
        }
      }
    },
    "version": 1
  },
  "userdoc": {
    "kind": "user",
    "methods": {},
    "version": 1
  }
}