{
  "contractName": "Lottery",
  "abi": [
    {
      "inputs": [],
      "stateMutability": "nonpayable",
      "type": "constructor"
    },
    {
      "anonymous": false,
      "inputs": [
        {
          "indexed": false,
          "internalType": "uint256",
          "name": "index",
          "type": "uint256"
        },
        {
          "indexed": false,
          "internalType": "address",
          "name": "bettor",
          "type": "address"
        },
        {
          "indexed": false,
          "internalType": "uint256",
          "name": "amount",
          "type": "uint256"
        },
        {
          "indexed": false,
          "internalType": "bytes",
          "name": "challenges",
          "type": "bytes"
        },
        {
          "indexed": false,
          "internalType": "uint256",
          "name": "answerBlockNumber",
          "type": "uint256"
        }
      ],
      "name": "BET",
      "type": "event"
    },
    {
      "anonymous": false,
      "inputs": [
        {
          "indexed": false,
          "internalType": "uint256",
          "name": "index",
          "type": "uint256"
        },
        {
          "indexed": false,
          "internalType": "address",
          "name": "bettor",
          "type": "address"
        },
        {
          "indexed": false,
          "internalType": "uint256",
          "name": "amount",
          "type": "uint256"
        },
        {
          "indexed": false,
          "internalType": "bytes",
          "name": "challenges",
          "type": "bytes"
        },
        {
          "indexed": false,
          "internalType": "bytes1",
          "name": "answer",
          "type": "bytes1"
        },
        {
          "indexed": false,
          "internalType": "uint256",
          "name": "answerBlockNumber",
          "type": "uint256"
        }
      ],
      "name": "DRAW",
      "type": "event"
    },
    {
      "anonymous": false,
      "inputs": [
        {
          "indexed": false,
          "internalType": "uint256",
          "name": "index",
          "type": "uint256"
        },
        {
          "indexed": false,
          "internalType": "address",
          "name": "bettor",
          "type": "address"
        },
        {
          "indexed": false,
          "internalType": "uint256",
          "name": "amount",
          "type": "uint256"
        },
        {
          "indexed": false,
          "internalType": "bytes",
          "name": "challenges",
          "type": "bytes"
        },
        {
          "indexed": false,
          "internalType": "bytes1",
          "name": "answer",
          "type": "bytes1"
        },
        {
          "indexed": false,
          "internalType": "uint256",
          "name": "answerBlockNumber",
          "type": "uint256"
        }
      ],
      "name": "FAIL",
      "type": "event"
    },
    {
      "anonymous": false,
      "inputs": [
        {
          "indexed": false,
          "internalType": "uint256",
          "name": "index",
          "type": "uint256"
        },
        {
          "indexed": false,
          "internalType": "address",
          "name": "bettor",
          "type": "address"
        },
        {
          "indexed": false,
          "internalType": "uint256",
          "name": "amount",
          "type": "uint256"
        },
        {
          "indexed": false,
          "internalType": "bytes",
          "name": "challenges",
          "type": "bytes"
        },
        {
          "indexed": false,
          "internalType": "uint256",
          "name": "answerBlockNumber",
          "type": "uint256"
        }
      ],
      "name": "REFUND",
      "type": "event"
    },
    {
      "anonymous": false,
      "inputs": [
        {
          "indexed": false,
          "internalType": "uint256",
          "name": "index",
          "type": "uint256"
        },
        {
          "indexed": false,
          "internalType": "address",
          "name": "bettor",
          "type": "address"
        },
        {
          "indexed": false,
          "internalType": "uint256",
          "name": "amount",
          "type": "uint256"
        },
        {
          "indexed": false,
          "internalType": "bytes",
          "name": "challenges",
          "type": "bytes"
        },
        {
          "indexed": false,
          "internalType": "bytes1",
          "name": "answer",
          "type": "bytes1"
        },
        {
          "indexed": false,
          "internalType": "uint256",
          "name": "answerBlockNumber",
          "type": "uint256"
        }
      ],
      "name": "WIN",
      "type": "event"
    },
    {
      "inputs": [],
      "name": "answerForTest",
      "outputs": [
        {
          "internalType": "bytes32",
          "name": "",
          "type": "bytes32"
        }
      ],
      "stateMutability": "view",
      "type": "function",
      "constant": true
    },
    {
      "inputs": [],
      "name": "owner",
      "outputs": [
        {
          "internalType": "address payable",
          "name": "",
          "type": "address"
        }
      ],
      "stateMutability": "view",
      "type": "function",
      "constant": true
    },
    {
      "inputs": [],
      "name": "getPot",
      "outputs": [
        {
          "internalType": "uint256",
          "name": "pot",
          "type": "uint256"
        }
      ],
      "stateMutability": "view",
      "type": "function",
      "constant": true
    },
    {
      "inputs": [
        {
          "internalType": "uint256",
          "name": "index",
          "type": "uint256"
        }
      ],
      "name": "getBetInfo",
      "outputs": [
        {
          "internalType": "uint256",
          "name": "answerBlockNumber",
          "type": "uint256"
        },
        {
          "internalType": "address",
          "name": "bettor",
          "type": "address"
        },
        {
          "internalType": "bytes",
          "name": "challenges",
          "type": "bytes"
        }
      ],
      "stateMutability": "view",
      "type": "function",
      "constant": true
    },
    {
      "inputs": [
        {
          "internalType": "bytes",
          "name": "challenges",
          "type": "bytes"
        }
      ],
      "name": "pushBet",
      "outputs": [
        {
          "internalType": "bool",
          "name": "",
          "type": "bool"
        }
      ],
      "stateMutability": "nonpayable",
      "type": "function"
    },
    {
      "inputs": [
        {
          "internalType": "uint256",
          "name": "index",
          "type": "uint256"
        }
      ],
      "name": "popBet",
      "outputs": [
        {
          "internalType": "bool",
          "name": "",
          "type": "bool"
        }
      ],
      "stateMutability": "nonpayable",
      "type": "function"
    },
    {
      "inputs": [
        {
          "internalType": "bytes",
          "name": "challenges",
          "type": "bytes"
        }
      ],
      "name": "bet",
      "outputs": [
        {
          "internalType": "bool",
          "name": "result",
          "type": "bool"
        }
      ],
      "stateMutability": "payable",
      "type": "function",
      "payable": true
    },
    {
      "inputs": [
        {
          "internalType": "bytes",
          "name": "challenges",
          "type": "bytes"
        }
      ],
      "name": "betAndDistribute",
      "outputs": [
        {
          "internalType": "bool",
          "name": "result",
          "type": "bool"
        }
      ],
      "stateMutability": "payable",
      "type": "function",
      "payable": true
    },
    {
      "inputs": [],
      "name": "distribute",
      "outputs": [],
      "stateMutability": "nonpayable",
      "type": "function"
    },
    {
      "inputs": [
        {
          "internalType": "bytes32",
          "name": "answer",
          "type": "bytes32"
        }
      ],
      "name": "setAnswerForTest",
      "outputs": [
        {
          "internalType": "bool",
          "name": "result",
          "type": "bool"
        }
      ],
      "stateMutability": "nonpayable",
      "type": "function"
    },
    {
      "inputs": [
        {
          "internalType": "bytes",
          "name": "challenges",
          "type": "bytes"
        },
        {
          "internalType": "bytes32",
          "name": "answer",
          "type": "bytes32"
        }
      ],
      "name": "isMatch",
      "outputs": [
        {
          "internalType": "enum Lottery.BettingResult",
          "name": "",
          "type": "uint8"
        }
      ],
      "stateMutability": "pure",
      "type": "function",
      "constant": true
    }
  ],
  "bytecode": "0x60806040526000600660006101000a81548160ff02191690831515021790555034801561002b57600080fd5b5033600460006101000a81548173ffffffffffffffffffffffffffffffffffffffff021916908373ffffffffffffffffffffffffffffffffffffffff160217905550611f538061007c6000396000f3fe60806040526004361061009c5760003560e01c806379141f801161006457806379141f80146101a657806384f7e4f0146101e55780638da5cb5b14610210578063982141351461023b578063d04c9a8c14610278578063e4fc6b6d146102b55761009c565b8063225ecb96146100a157806327990a5a146100d1578063403c9fa81461010e578063599eac8a146101395780637009fa3614610169575b600080fd5b6100bb60048036038101906100b691906115ef565b6102cc565b6040516100c89190611653565b60405180910390f35b3480156100dd57600080fd5b506100f860048036038101906100f391906116a4565b6102e9565b6040516101059190611777565b60405180910390f35b34801561011a57600080fd5b50610123610926565b60405161013091906117ab565b60405180910390f35b610153600480360381019061014e91906115ef565b610930565b6040516101609190611653565b60405180910390f35b34801561017557600080fd5b50610190600480360381019061018b91906117c6565b610a24565b60405161019d9190611653565b60405180910390f35b3480156101b257600080fd5b506101cd60048036038101906101c8919061181f565b610ac6565b6040516101dc93929190611915565b60405180910390f35b3480156101f157600080fd5b506101fa610bfb565b6040516102079190611962565b60405180910390f35b34801561021c57600080fd5b50610225610c01565b604051610232919061199e565b60405180910390f35b34801561024757600080fd5b50610262600480360381019061025d91906115ef565b610c27565b60405161026f9190611653565b60405180910390f35b34801561028457600080fd5b5061029f600480360381019061029a919061181f565b610d30565b6040516102ac9190611653565b60405180910390f35b3480156102c157600080fd5b506102ca610d8f565b005b60006102d782610930565b506102e0610d8f565b60019050919050565b600080600167ffffffffffffffff811115610307576103066114c4565b5b6040519080825280601f01601f1916602001820160405280156103395781602001600182028036833780820191505090505b5090506000600167ffffffffffffffff811115610359576103586114c4565b5b6040519080825280601f01601f19166020018201604052801561038b5781602001600182028036833780820191505090505b5090506000600167ffffffffffffffff8111156103ab576103aa6114c4565b5b6040519080825280601f01601f1916602001820160405280156103dd5781602001600182028036833780820191505090505b5090506000600167ffffffffffffffff8111156103fd576103fc6114c4565b5b6040519080825280601f01601f19166020018201604052801561042f5781602001600182028036833780820191505090505b50905060048088600081518110610449576104486119b9565b5b602001015160f81c60f81b7effffffffffffffffffffffffffffffffffffffffffffffffffffffffffffff1916901c7effffffffffffffffffffffffffffffffffffffffffffffffffffffffffffff1916901b846000815181106104b0576104af6119b9565b5b60200101907effffffffffffffffffffffffffffffffffffffffffffffffffffffffffffff1916908160001a905350600480886000815181106104f6576104f56119b9565b5b602001015160f81c60f81b7effffffffffffffffffffffffffffffffffffffffffffffffffffffffffffff1916901b7effffffffffffffffffffffffffffffffffffffffffffffffffffffffffffff1916901c8360008151811061055d5761055c6119b9565b5b60200101907effffffffffffffffffffffffffffffffffffffffffffffffffffffffffffff1916908160001a905350600480876000602081106105a3576105a26119b9565b5b1a60f81b7effffffffffffffffffffffffffffffffffffffffffffffffffffffffffffff1916901c7effffffffffffffffffffffffffffffffffffffffffffffffffffffffffffff1916901b82600081518110610603576106026119b9565b5b60200101907effffffffffffffffffffffffffffffffffffffffffffffffffffffffffffff1916908160001a90535060048087600060208110610649576106486119b9565b5b1a60f81b7effffffffffffffffffffffffffffffffffffffffffffffffffffffffffffff1916901b7effffffffffffffffffffffffffffffffffffffffffffffffffffffffffffff1916901c816000815181106106a9576106a86119b9565b5b60200101907effffffffffffffffffffffffffffffffffffffffffffffffffffffffffffff1916908160001a905350836000815181106106ec576106eb6119b9565b5b602001015160f81c60f81b7effffffffffffffffffffffffffffffffffffffffffffffffffffffffffffff19168260008151811061072d5761072c6119b9565b5b602001015160f81c60f81b7effffffffffffffffffffffffffffffffffffffffffffffffffffffffffffff19161480156107e6575082600081518110610776576107756119b9565b5b602001015160f81c60f81b7effffffffffffffffffffffffffffffffffffffffffffffffffffffffffffff1916816000815181106107b7576107b66119b9565b5b602001015160f81c60f81b7effffffffffffffffffffffffffffffffffffffffffffffffffffffffffffff1916145b156107f8576001945050505050610920565b8360008151811061080c5761080b6119b9565b5b602001015160f81c60f81b7effffffffffffffffffffffffffffffffffffffffffffffffffffffffffffff19168260008151811061084d5761084c6119b9565b5b602001015160f81c60f81b7effffffffffffffffffffffffffffffffffffffffffffffffffffffffffffff19161480610905575082600081518110610895576108946119b9565b5b602001015160f81c60f81b7effffffffffffffffffffffffffffffffffffffffffffffffffffffffffffff1916816000815181106108d6576108d56119b9565b5b602001015160f81c60f81b7effffffffffffffffffffffffffffffffffffffffffffffffffffffffffffff1916145b15610917576002945050505050610920565b60009450505050505b92915050565b6000600354905090565b60006611c37937e08000341461097b576040517f08c379a000000000000000000000000000000000000000000000000000000000815260040161097290611a45565b60405180910390fd5b61098482610c27565b6109c3576040517f08c379a00000000000000000000000000000000000000000000000000000000081526004016109ba90611ab1565b60405180910390fd5b7f2fd14896e96d250bb5049b83d0198fc7663c624bc855bd734f54a2d56cab236b600180546109f29190611b00565b333485600343610a029190611b34565b604051610a13959493929190611b8a565b60405180910390a160019050919050565b6000600460009054906101000a900473ffffffffffffffffffffffffffffffffffffffff1673ffffffffffffffffffffffffffffffffffffffff163373ffffffffffffffffffffffffffffffffffffffff1614610ab6576040517f08c379a0000000000000000000000000000000000000000000000000000000008152600401610aad90611c56565b60405180910390fd5b8160058190555060019050919050565b60008060606000806000868152602001908152602001600020604051806060016040529081600082015481526020016001820160009054906101000a900473ffffffffffffffffffffffffffffffffffffffff1673ffffffffffffffffffffffffffffffffffffffff1673ffffffffffffffffffffffffffffffffffffffff168152602001600282018054610b5a90611ca5565b80601f0160208091040260200160405190810160405280929190818152602001828054610b8690611ca5565b8015610bd35780601f10610ba857610100808354040283529160200191610bd3565b820191906000526020600020905b815481529060010190602001808311610bb657829003601f168201915b5050505050815250509050806000015193508060200151925080604001519150509193909250565b60055481565b600460009054906101000a900473ffffffffffffffffffffffffffffffffffffffff1681565b6000610c3161137b565b33816020019073ffffffffffffffffffffffffffffffffffffffff16908173ffffffffffffffffffffffffffffffffffffffff1681525050600343610c769190611b34565b8160000181815250508281604001819052508060008060015481526020019081526020016000206000820151816000015560208201518160010160006101000a81548173ffffffffffffffffffffffffffffffffffffffff021916908373ffffffffffffffffffffffffffffffffffffffff1602179055506040820151816002019080519060200190610d0a9291906113b2565b5090505060016000815480929190610d2190611cd6565b91905055506001915050919050565b60008060008381526020019081526020016000206000808201600090556001820160006101000a81549073ffffffffffffffffffffffffffffffffffffffff0219169055600282016000610d849190611438565b505060019050919050565b6000610d9961137b565b600060025492505b60015483101561121357600080848152602001908152602001600020604051806060016040529081600082015481526020016001820160009054906101000a900473ffffffffffffffffffffffffffffffffffffffff1673ffffffffffffffffffffffffffffffffffffffff1673ffffffffffffffffffffffffffffffffffffffff168152602001600282018054610e3890611ca5565b80601f0160208091040260200160405190810160405280929190818152602001828054610e6490611ca5565b8015610eb15780601f10610e8657610100808354040283529160200191610eb1565b820191906000526020600020905b815481529060010190602001808311610e9457829003601f168201915b50505050508152505091506000610ecb836000015161121f565b91506000806002811115610ee257610ee1611700565b5b836002811115610ef557610ef4611700565b5b03611133576000610f098560000151611281565b9050610f198560400151826102e9565b915060016002811115610f2f57610f2e611700565b5b826002811115610f4257610f41611700565b5b03610fd857610f6985602001516611c37937e08000600354610f649190611b34565b6112a9565b925060006003819055507f67415885a5103323dc0cd948ce24b43bdaf4fc3854e6f471576ec9a760cb4ec486866020015185886040015185600060208110610fb457610fb36119b9565b5b1a60f81b8a60000151604051610fcf96959493929190611db8565b60405180910390a15b60006002811115610fec57610feb611700565b5b826002811115610fff57610ffe611700565b5b0361108a576611c37937e080006003600082825461101d9190611b34565b925050819055507f190414744fb2a511f6dde54b4c108d49527e6e0825b826243936dc94016f5c1c8686602001516000886040015185600060208110611066576110656119b9565b5b1a60f81b8a6000015160405161108196959493929190611e5b565b60405180910390a15b60028081111561109d5761109c611700565b5b8260028111156110b0576110af611700565b5b03611131576110ca85602001516611c37937e080006112a9565b92507f328c47ba2141843458837d5a595cfb817baf22da9245bb6e1e8626d9e78ece6a8686602001518588604001518560006020811061110d5761110c6119b9565b5b1a60f81b8a6000015160405161112896959493929190611db8565b60405180910390a15b505b6001600281111561114757611146611700565b5b83600281111561115a57611159611700565b5b03611166575050611213565b60028081111561117957611178611700565b5b83600281111561118c5761118b611700565b5b036111f4576111a684602001516611c37937e080006112a9565b91507fb9e770a7cb81e48633298e345872ba6588ee43da5e788b452485e2b4ac8f132485856020015184876040015188600001516040516111eb959493929190611ec3565b60405180910390a15b6111fd85610d30565b505050828061120b90611cd6565b935050610da1565b82600281905550505050565b6000814311801561123c5750610100826112399190611b34565b43105b1561124a576000905061127c565b81431161125a576001905061127c565b610100826112689190611b34565b4310611277576002905061127c565b600290505b919050565b6000600660009054906101000a900460ff1661129f576005546112a2565b81405b9050919050565b60008060009050600081846112be9190611b00565b90508473ffffffffffffffffffffffffffffffffffffffff166108fc829081150290604051600060405180830381858888f19350505050158015611306573d6000803e3d6000fd5b50600460009054906101000a900473ffffffffffffffffffffffffffffffffffffffff1673ffffffffffffffffffffffffffffffffffffffff166108fc839081150290604051600060405180830381858888f1935050505015801561136f573d6000803e3d6000fd5b50809250505092915050565b604051806060016040528060008152602001600073ffffffffffffffffffffffffffffffffffffffff168152602001606081525090565b8280546113be90611ca5565b90600052602060002090601f0160209004810192826113e05760008555611427565b82601f106113f957805160ff1916838001178555611427565b82800160010185558215611427579182015b8281111561142657825182559160200191906001019061140b565b5b5090506114349190611478565b5090565b50805461144490611ca5565b6000825580601f106114565750611475565b601f0160209004906000526020600020908101906114749190611478565b5b50565b5b80821115611491576000816000905550600101611479565b5090565b6000604051905090565b600080fd5b600080fd5b600080fd5b600080fd5b6000601f19601f8301169050919050565b7f4e487b7100000000000000000000000000000000000000000000000000000000600052604160045260246000fd5b6114fc826114b3565b810181811067ffffffffffffffff8211171561151b5761151a6114c4565b5b80604052505050565b600061152e611495565b905061153a82826114f3565b919050565b600067ffffffffffffffff82111561155a576115596114c4565b5b611563826114b3565b9050602081019050919050565b82818337600083830152505050565b600061159261158d8461153f565b611524565b9050828152602081018484840111156115ae576115ad6114ae565b5b6115b9848285611570565b509392505050565b600082601f8301126115d6576115d56114a9565b5b81356115e684826020860161157f565b91505092915050565b6000602082840312156116055761160461149f565b5b600082013567ffffffffffffffff811115611623576116226114a4565b5b61162f848285016115c1565b91505092915050565b60008115159050919050565b61164d81611638565b82525050565b60006020820190506116686000830184611644565b92915050565b6000819050919050565b6116818161166e565b811461168c57600080fd5b50565b60008135905061169e81611678565b92915050565b600080604083850312156116bb576116ba61149f565b5b600083013567ffffffffffffffff8111156116d9576116d86114a4565b5b6116e5858286016115c1565b92505060206116f68582860161168f565b9150509250929050565b7f4e487b7100000000000000000000000000000000000000000000000000000000600052602160045260246000fd5b600381106117405761173f611700565b5b50565b60008190506117518261172f565b919050565b600061176182611743565b9050919050565b61177181611756565b82525050565b600060208201905061178c6000830184611768565b92915050565b6000819050919050565b6117a581611792565b82525050565b60006020820190506117c0600083018461179c565b92915050565b6000602082840312156117dc576117db61149f565b5b60006117ea8482850161168f565b91505092915050565b6117fc81611792565b811461180757600080fd5b50565b600081359050611819816117f3565b92915050565b6000602082840312156118355761183461149f565b5b60006118438482850161180a565b91505092915050565b600073ffffffffffffffffffffffffffffffffffffffff82169050919050565b60006118778261184c565b9050919050565b6118878161186c565b82525050565b600081519050919050565b600082825260208201905092915050565b60005b838110156118c75780820151818401526020810190506118ac565b838111156118d6576000848401525b50505050565b60006118e78261188d565b6118f18185611898565b93506119018185602086016118a9565b61190a816114b3565b840191505092915050565b600060608201905061192a600083018661179c565b611937602083018561187e565b818103604083015261194981846118dc565b9050949350505050565b61195c8161166e565b82525050565b60006020820190506119776000830184611953565b92915050565b60006119888261184c565b9050919050565b6119988161197d565b82525050565b60006020820190506119b3600083018461198f565b92915050565b7f4e487b7100000000000000000000000000000000000000000000000000000000600052603260045260246000fd5b600082825260208201905092915050565b7f4e4f5420456e6f75676820455448212100000000000000000000000000000000600082015250565b6000611a2f6010836119e8565b9150611a3a826119f9565b602082019050919050565b60006020820190508181036000830152611a5e81611a22565b9050919050565b7f4661696c20746f206164642061206e65772062657420696e666f000000000000600082015250565b6000611a9b601a836119e8565b9150611aa682611a65565b602082019050919050565b60006020820190508181036000830152611aca81611a8e565b9050919050565b7f4e487b7100000000000000000000000000000000000000000000000000000000600052601160045260246000fd5b6000611b0b82611792565b9150611b1683611792565b925082821015611b2957611b28611ad1565b5b828203905092915050565b6000611b3f82611792565b9150611b4a83611792565b9250827fffffffffffffffffffffffffffffffffffffffffffffffffffffffffffffffff03821115611b7f57611b7e611ad1565b5b828201905092915050565b600060a082019050611b9f600083018861179c565b611bac602083018761187e565b611bb9604083018661179c565b8181036060830152611bcb81856118dc565b9050611bda608083018461179c565b9695505050505050565b7f6f6e6c79206f77656e65722063616e207365742074686520616e73776572206660008201527f6f722074657374206d6f64650000000000000000000000000000000000000000602082015250565b6000611c40602c836119e8565b9150611c4b82611be4565b604082019050919050565b60006020820190508181036000830152611c6f81611c33565b9050919050565b7f4e487b7100000000000000000000000000000000000000000000000000000000600052602260045260246000fd5b60006002820490506001821680611cbd57607f821691505b602082108103611cd057611ccf611c76565b5b50919050565b6000611ce182611792565b91507fffffffffffffffffffffffffffffffffffffffffffffffffffffffffffffffff8203611d1357611d12611ad1565b5b600182019050919050565b6000819050919050565b6000611d43611d3e611d398461184c565b611d1e565b61184c565b9050919050565b6000611d5582611d28565b9050919050565b6000611d6782611d4a565b9050919050565b611d7781611d5c565b82525050565b60007fff0000000000000000000000000000000000000000000000000000000000000082169050919050565b611db281611d7d565b82525050565b600060c082019050611dcd600083018961179c565b611dda6020830188611d6e565b611de7604083018761179c565b8181036060830152611df981866118dc565b9050611e086080830185611da9565b611e1560a083018461179c565b979650505050505050565b6000819050919050565b6000611e45611e40611e3b84611e20565b611d1e565b611792565b9050919050565b611e5581611e2a565b82525050565b600060c082019050611e70600083018961179c565b611e7d6020830188611d6e565b611e8a6040830187611e4c565b8181036060830152611e9c81866118dc565b9050611eab6080830185611da9565b611eb860a083018461179c565b979650505050505050565b600060a082019050611ed8600083018861179c565b611ee56020830187611d6e565b611ef2604083018661179c565b8181036060830152611f0481856118dc565b9050611f13608083018461179c565b969550505050505056fea2646970667358221220f710df05883c1de5f25380cfd629367aa049a0aebf6024b49a476814795edc6464736f6c634300080d0033",
  "immutableReferences": {},
  "source": "// SPDX-License-Identifier: MIT\r\npragma solidity >=0.4.22 <0.9.0;\r\n\r\ncontract Lottery {\r\n    \r\n    //  ( , ,  )\r\n    struct BetInfo{\r\n        uint256 answerBlockNumber;\r\n        address payable bettor;\r\n        bytes challenges; //\r\n    }\r\n\r\n    mapping(uint256 => BetInfo) private _bets; //-   \r\n\r\n    constructor() {\r\n        owner = payable(msg.sender);\r\n    }\r\n\r\n\r\n    uint256 private _tail; //\r\n    uint256 private _head;\r\n    uint256 private _pot;\r\n\r\n    uint256 constant internal BET_AMOUNT = 5*10**15;\r\n    uint256 constant internal BET_BLOCK_INTERVAL = 3;\r\n    uint256 constant internal BLOCK_LIMIT = 256;\r\n\r\n    address payable public owner;\r\n    bytes32 public answerForTest;\r\n    bool private mode = false; // false: use answer for test mode , true : real block hash\r\n\r\n    enum BlockStatus {Checkable, NotRevealed, BlockLimitPassed}\r\n    enum BettingResult{Fail,Win,Draw}\r\n\r\n    event BET(uint256 index, address bettor , uint256 amount, bytes challenges, uint256 answerBlockNumber);\r\n    event WIN(uint256 index, address bettor, uint256 amount, bytes challenges, bytes1 answer, uint256 answerBlockNumber);\r\n    event FAIL(uint256 index, address bettor, uint256 amount, bytes challenges, bytes1 answer, uint256 answerBlockNumber);\r\n    event DRAW(uint256 index, address bettor, uint256 amount, bytes challenges, bytes1 answer, uint256 answerBlockNumber);\r\n    event REFUND(uint256 index, address bettor, uint256 amount, bytes challenges, uint256 answerBlockNumber);\r\n \r\n\r\n    function getPot() public view returns (uint256 pot){\r\n        return _pot;\r\n    }\r\n    \r\n    function getBetInfo(uint256 index) public view returns (uint256 answerBlockNumber, address bettor, bytes memory challenges) {\r\n        BetInfo memory b = _bets[index];\r\n        answerBlockNumber = b.answerBlockNumber;\r\n        bettor = b.bettor;\r\n        challenges = b.challenges;\r\n    }\r\n\r\n\r\n    function pushBet(bytes memory challenges) public returns (bool){\r\n        \r\n        BetInfo memory b;\r\n        \r\n        b.bettor =  payable(msg.sender); //20byte\r\n        b.answerBlockNumber = block.number + BET_BLOCK_INTERVAL; //unt256 = 32byte 20000\r\n        b.challenges = challenges; //byte 20000\r\n\r\n        _bets[_tail] = b; //    \r\n        _tail++;  // 20000\r\n        // 60000  = 96802 \r\n\r\n        return true;\r\n    }\r\n\r\n    function popBet(uint256 index) public returns (bool){\r\n        delete _bets[index];\r\n        return true;\r\n    }\r\n    //BET \r\n        // save the bet to the queue\r\n    \r\n    /**\r\n     * @dev .  0.005ETH ,  1byte .\r\n     *      distribute  .\r\n     * @param challenges    1byte\r\n     * @return result     bool \r\n     */\r\n    function bet(bytes memory challenges) public payable returns(bool result){\r\n        //check the proper eth is sent\r\n\r\n        require(msg.value == BET_AMOUNT, \"NOT Enough ETH!!\");\r\n        \r\n        //push bet the queue\r\n        require(pushBet(challenges), \"Fail to add a new bet info\");\r\n        // emit event log\r\n        emit BET(_tail -1 , msg.sender, msg.value, challenges, block.number+BET_BLOCK_INTERVAL); // 375  x   , 4000~6000 \r\n        \r\n        return true;\r\n    }\r\n    \r\n    /**\r\n     * @dev    .\r\n     * ...\r\n     * @param challenges    \r\n     * @return result      bool \r\n     */\r\n    function betAndDistribute(bytes memory challenges) public payable returns (bool result){\r\n        bet(challenges);\r\n        distribute();\r\n\r\n        return true;\r\n    }\r\n\r\n    // Distribue \r\n    \r\n    /**\r\n     * @dev     . \r\n     *   :  ,   :  ,  ,  :  , \r\n     */\r\n    function distribute() public{\r\n        // head 4 5 6 7 8 9 10 11 12 tail\r\n        uint256 cur; \r\n        BetInfo memory b;\r\n        BlockStatus currentBlockStatus;\r\n\r\n        for(cur =_head; cur<_tail; cur++){\r\n            b = _bets[cur];\r\n            uint256 transferAmount;\r\n            currentBlockStatus = getBlockStatus(b.answerBlockNumber);\r\n            BettingResult currentBettingResult;\r\n\r\n\r\n            // Checkable : block.number > AnswerBlockNumber && block.number  <   AnswerBlockNumber  + Blick_Limit\r\n            if(currentBlockStatus == BlockStatus.Checkable){\r\n\r\n                bytes32 answerBlockHash = getAnswerBlockHash(b.answerBlockNumber);\r\n                currentBettingResult = isMatch(b.challenges, answerBlockHash);\r\n\r\n\r\n                // if win , bettor gets pot\r\n                if(currentBettingResult == BettingResult.Win){\r\n                    //transfer pot \r\n                     transferAmount= transferAfterPayingFee(b.bettor, _pot + BET_AMOUNT);\r\n                    //pot = 0 \r\n                    _pot = 0;\r\n                    // emit event(WIN)\r\n                    \r\n                    emit WIN(cur, b.bettor, transferAmount, b.challenges, answerBlockHash[0], b.answerBlockNumber);\r\n                }\r\n\r\n                // if fail, beetor's money goes pot\r\n                if(currentBettingResult == BettingResult.Fail){\r\n                    //pot = pot + BET_AMOUNT\r\n                    _pot += BET_AMOUNT;\r\n\r\n                    // emit event(FAIL)\r\n                    emit FAIL(cur, b.bettor, 0 , b.challenges, answerBlockHash[0], b.answerBlockNumber);\r\n\r\n                }\r\n                    //\r\n                // if draw, refund bettors' money\r\n                if(currentBettingResult == BettingResult.Draw){\r\n                    // transfer only BET_AMOUNT\r\n                     transferAmount= transferAfterPayingFee(b.bettor, BET_AMOUNT);\r\n                    // emit event(DRAW)\r\n                    emit DRAW(cur, b.bettor, transferAmount , b.challenges, answerBlockHash[0], b.answerBlockNumber);\r\n\r\n                }\r\n            }\r\n            // Not Revealed : block.number <= AnswerBlocknumber \r\n            if(currentBlockStatus == BlockStatus.NotRevealed){\r\n                break;\r\n            }\r\n\r\n            // Block Limit papssed : block.number >= AnswerBlockNumber + Block_LIMIT\r\n            if(currentBlockStatus == BlockStatus.BlockLimitPassed){\r\n                // refund\r\n                transferAmount= transferAfterPayingFee(b.bettor, BET_AMOUNT);\r\n\r\n                // emit refund \r\n                emit REFUND(cur, b.bettor, transferAmount , b.challenges, b.answerBlockNumber);\r\n\r\n            }     \r\n\r\n            popBet(cur);\r\n\r\n        }\r\n        _head = cur;\r\n    }\r\n    function transferAfterPayingFee(address payable addr, uint256 amount) internal returns(uint256){\r\n        \r\n        //uint256 fee = amount / 100;\r\n        uint256 fee = 0;\r\n        \r\n        uint256 amountWithoutFee = amount - fee;\r\n        //transfer to addr \r\n        addr.transfer(amountWithoutFee);\r\n        \r\n        //transfer to owner\r\n        owner.transfer(fee);\r\n\r\n        //call(), send , transfer \r\n        return amountWithoutFee;\r\n    }\r\n\r\n    function setAnswerForTest(bytes32 answer) public returns (bool result){\r\n        require(msg.sender == owner, \"only owener can set the answer for test mode\");\r\n        answerForTest = answer;\r\n        return true;\r\n    }\r\n    function getAnswerBlockHash(uint256 answerBlockNumber) internal view returns (bytes32 answer){\r\n        return mode ? blockhash(answerBlockNumber) : answerForTest;\r\n    }\r\n    /**\r\n     * @dev   \r\n     * @param challenges \r\n     * @param answer \r\n     * @return  \r\n     */\r\n    function isMatch(bytes memory challenges, bytes32 answer) public pure returns (BettingResult) {\r\n        // Create bytes memory for comparison\r\n        bytes memory c1 = new bytes(1);\r\n        bytes memory c2 = new bytes(1);\r\n        bytes memory a1 = new bytes(1);\r\n        bytes memory a2 = new bytes(1);\r\n\r\n        c1[0] = challenges[0] >> 4 << 4; // Extract first nibble\r\n        c2[0] = challenges[0] << 4 >> 4; // Extract second nibble\r\n\r\n        a1[0] = answer[0] >> 4 << 4; // Extract first nibble\r\n        a2[0] = answer[0] << 4 >> 4; // Extract second nibble\r\n\r\n        if (a1[0] == c1[0] && a2[0] == c2[0]) {\r\n            return BettingResult.Win;\r\n        }\r\n        if (a1[0] == c1[0] || a2[0] == c2[0]) {\r\n            return BettingResult.Draw;\r\n        }\r\n        return BettingResult.Fail;\r\n    }\r\n\r\n\r\n    function getBlockStatus(uint256 answerBlockNumber) internal view returns (BlockStatus){\r\n        if(block.number > answerBlockNumber && block.number  <   answerBlockNumber  + BLOCK_LIMIT){\r\n            return BlockStatus.Checkable;\r\n        }\r\n        if(block.number <= answerBlockNumber ){\r\n            return BlockStatus.NotRevealed;\r\n        }\r\n        if(block.number >= answerBlockNumber + BLOCK_LIMIT){\r\n            return BlockStatus.BlockLimitPassed;\r\n        }\r\n        return BlockStatus.BlockLimitPassed;\r\n\r\n    }\r\n        \r\n    \r\n}",
  "sourcePath": "C:\\Users\\soll0\\Desktop\\24 \\\\Betting_Dapp\\contracts\\Lottery.sol",
  "compiler": {
    "name": "solc",
    "version": "0.8.13+commit.abaa5c0e.Emscripten.clang"
  },
  "schemaVersion": "3.4.16",
  "updatedAt": "2024-12-26T13:30:06.619Z",
  "networkType": "ethereum",
  "devdoc": {
    "kind": "dev",
    "methods": {
      "bet(bytes)": {
        "details": ".  0.005ETH ,  1byte .      distribute  .",
        "params": {
          "challenges": "   1byte"
        },
        "returns": {
          "result": "    bool "
        }
      },
      "betAndDistribute(bytes)": {
        "details": "   . ...",
        "params": {
          "challenges": "   "
        },
        "returns": {
          "result": "     bool "
        }
      },
      "distribute()": {
        "details": "    .    :  ,   :  ,  ,  :  , "
      },
      "isMatch(bytes,bytes32)": {
        "details": "  ",
        "params": {
          "answer": "",
          "challenges": ""
        },
        "returns": {
          "_0": " "
        }
      }
    },
    "version": 1
  },
  "userdoc": {
    "kind": "user",
    "methods": {},
    "version": 1
  }
}