{
  "contractName": "Migrations",
  "abi": [
    {
      "inputs": [],
      "stateMutability": "nonpayable",
      "type": "constructor"
    },
    {
      "inputs": [],
      "name": "lastCompletedMigration",
      "outputs": [
        {
          "internalType": "uint256",
          "name": "",
          "type": "uint256"
        }
      ],
      "stateMutability": "view",
      "type": "function",
      "constant": true
    },
    {
      "inputs": [],
      "name": "owner",
      "outputs": [
        {
          "internalType": "address",
          "name": "",
          "type": "address"
        }
      ],
      "stateMutability": "view",
      "type": "function",
      "constant": true
    },
    {
      "inputs": [
        {
          "internalType": "uint256",
          "name": "completed",
          "type": "uint256"
        }
      ],
      "name": "setCompleted",
      "outputs": [],
      "stateMutability": "nonpayable",
      "type": "function"
    }
  ],
  "bytecode": "0x608060405234801561001057600080fd5b50336000806101000a81548173ffffffffffffffffffffffffffffffffffffffff021916908373ffffffffffffffffffffffffffffffffffffffff160217905550610327806100606000396000f3fe608060405234801561001057600080fd5b50600436106100415760003560e01c80638da5cb5b14610046578063fbdbad3c14610064578063fdacd57614610082575b600080fd5b61004e61009e565b60405161005b91906101a1565b60405180910390f35b61006c6100c2565b60405161007991906101d5565b60405180910390f35b61009c60048036038101906100979190610221565b6100c8565b005b60008054906101000a900473ffffffffffffffffffffffffffffffffffffffff1681565b60015481565b60008054906101000a900473ffffffffffffffffffffffffffffffffffffffff1673ffffffffffffffffffffffffffffffffffffffff163373ffffffffffffffffffffffffffffffffffffffff1614610156576040517f08c379a000000000000000000000000000000000000000000000000000000000815260040161014d906102d1565b60405180910390fd5b8060018190555050565b600073ffffffffffffffffffffffffffffffffffffffff82169050919050565b600061018b82610160565b9050919050565b61019b81610180565b82525050565b60006020820190506101b66000830184610192565b92915050565b6000819050919050565b6101cf816101bc565b82525050565b60006020820190506101ea60008301846101c6565b92915050565b600080fd5b6101fe816101bc565b811461020957600080fd5b50565b60008135905061021b816101f5565b92915050565b600060208284031215610237576102366101f0565b5b60006102458482850161020c565b91505092915050565b600082825260208201905092915050565b7f4f6e6c7920746865206f776e65722063616e2073657420746865206d6967726160008201527f74696f6e2e000000000000000000000000000000000000000000000000000000602082015250565b60006102bb60258361024e565b91506102c68261025f565b604082019050919050565b600060208201905081810360008301526102ea816102ae565b905091905056fea2646970667358221220c837967c03c92b46e32b510f727760e03ac6f3f0be88bdebc575d3c8a5694eab64736f6c634300080d0033",
  "immutableReferences": {},
  "source": "// SPDX-License-Identifier: MIT\r\npragma solidity >=0.4.22 <0.9.0;\r\n\r\ncontract Migrations {\r\n    address public owner;\r\n    uint public lastCompletedMigration;\r\n\r\n    constructor() {\r\n        owner = msg.sender;\r\n    }\r\n\r\n    function setCompleted(uint completed) public {\r\n        require(msg.sender == owner, \"Only the owner can set the migration.\");\r\n        lastCompletedMigration = completed;\r\n    }\r\n}",
  "sourcePath": "C:\\Users\\soll0\\Desktop\\24 \\\\Betting_Dapp\\contracts\\Migrations.sol",
  "compiler": {
    "name": "solc",
    "version": "0.8.13+commit.abaa5c0e.Emscripten.clang"
  },
  "schemaVersion": "3.4.16",
  "updatedAt": "2024-12-26T13:30:06.633Z",
  "networkType": "ethereum",
  "devdoc": {
    "kind": "dev",
    "methods": {},
    "version": 1
  },
  "userdoc": {
    "kind": "user",
    "methods": {},
    "version": 1
  }
}